{
  "contractName": "VolcanoToken",
  "abi": [
    {
      "inputs": [],
      "stateMutability": "nonpayable",
      "type": "constructor"
    },
    {
      "anonymous": false,
      "inputs": [
        {
          "indexed": false,
          "internalType": "uint256",
          "name": "",
          "type": "uint256"
        }
      ],
      "name": "changedTotalSupply",
      "type": "event"
    },
    {
      "anonymous": false,
      "inputs": [
        {
          "indexed": false,
          "internalType": "uint256",
          "name": "",
          "type": "uint256"
        },
        {
          "indexed": false,
          "internalType": "address",
          "name": "",
          "type": "address"
        }
      ],
      "name": "transferE",
      "type": "event"
    },
    {
      "inputs": [],
      "name": "owner",
      "outputs": [
        {
          "internalType": "address",
          "name": "",
          "type": "address"
        }
      ],
      "stateMutability": "view",
      "type": "function",
      "constant": true
    },
    {
      "inputs": [],
      "name": "returnTotalSupply",
      "outputs": [
        {
          "internalType": "uint256",
          "name": "",
          "type": "uint256"
        }
      ],
      "stateMutability": "view",
      "type": "function",
      "constant": true
    },
    {
      "inputs": [],
      "name": "changeTotalSupply",
      "outputs": [],
      "stateMutability": "nonpayable",
      "type": "function"
    },
    {
      "inputs": [
        {
          "internalType": "address",
          "name": "tokenOwner",
          "type": "address"
        }
      ],
      "name": "balanceOf",
      "outputs": [
        {
          "internalType": "uint256",
          "name": "",
          "type": "uint256"
        }
      ],
      "stateMutability": "view",
      "type": "function",
      "constant": true
    },
    {
      "inputs": [
        {
          "internalType": "uint256",
          "name": "_transferAmount",
          "type": "uint256"
        },
        {
          "internalType": "address",
          "name": "_recepient",
          "type": "address"
        }
      ],
      "name": "transfer",
      "outputs": [],
      "stateMutability": "nonpayable",
      "type": "function"
    },
    {
      "inputs": [
        {
          "internalType": "address",
          "name": "_index",
          "type": "address"
        },
        {
          "internalType": "uint256",
          "name": "_arrayIndex",
          "type": "uint256"
        }
      ],
      "name": "getPaymentInfo",
      "outputs": [
        {
          "components": [
            {
              "internalType": "uint256",
              "name": "transferAmount",
              "type": "uint256"
            },
            {
              "internalType": "address",
              "name": "recepient",
              "type": "address"
            }
          ],
          "internalType": "struct VolcanoToken.Payment",
          "name": "",
          "type": "tuple"
        }
      ],
      "stateMutability": "view",
      "type": "function",
      "constant": true
    }
  ],
  "bytecode": "0x608060405234801561001057600080fd5b506103e8600281905550600254600360003373ffffffffffffffffffffffffffffffffffffffff1673ffffffffffffffffffffffffffffffffffffffff1681526020019081526020016000208190555033600160006101000a81548173ffffffffffffffffffffffffffffffffffffffff021916908373ffffffffffffffffffffffffffffffffffffffff160217905550610bdd806100b06000396000f3fe608060405234801561001057600080fd5b506004361061007f576000357c0100000000000000000000000000000000000000000000000000000000900480633ab83cdf1461008457806370a082311461008e5780638da5cb5b146100be578063971c56d8146100dc578063b7760c8f1461010c578063c0ab760314610128575b600080fd5b61008c610146565b005b6100a860048036038101906100a391906107c9565b610246565b6040516100b59190610991565b60405180910390f35b6100c661028f565b6040516100d3919061091b565b60405180910390f35b6100f660048036038101906100f191906107f2565b6102b5565b6040516101039190610976565b60405180910390f35b6101266004803603810190610121919061082e565b6103b4565b005b6101306106c6565b60405161013d9190610991565b60405180910390f35b600160009054906101000a900473ffffffffffffffffffffffffffffffffffffffff1673ffffffffffffffffffffffffffffffffffffffff163373ffffffffffffffffffffffffffffffffffffffff161415610244576103e86002546101ac91906109e6565b6002819055506103e8600360003373ffffffffffffffffffffffffffffffffffffffff1673ffffffffffffffffffffffffffffffffffffffff168152602001908152602001600020600082825461020391906109e6565b925050819055507f4ebb8091f66619efd4cbc217641cfc3041b30f07a2a14c5d231dff492ca3167460025460405161023b9190610991565b60405180910390a15b565b6000600360008373ffffffffffffffffffffffffffffffffffffffff1673ffffffffffffffffffffffffffffffffffffffff168152602001908152602001600020549050919050565b600160009054906101000a900473ffffffffffffffffffffffffffffffffffffffff1681565b6102bd61076f565b6000808473ffffffffffffffffffffffffffffffffffffffff1673ffffffffffffffffffffffffffffffffffffffff1681526020019081526020016000208281548110610333577f4e487b7100000000000000000000000000000000000000000000000000000000600052603260045260246000fd5b9060005260206000209060020201604051806040016040529081600082015481526020016001820160009054906101000a900473ffffffffffffffffffffffffffffffffffffffff1673ffffffffffffffffffffffffffffffffffffffff1673ffffffffffffffffffffffffffffffffffffffff1681525050905092915050565b600360003373ffffffffffffffffffffffffffffffffffffffff1673ffffffffffffffffffffffffffffffffffffffff16815260200190815260200160002054821115610436576040517f08c379a000000000000000000000000000000000000000000000000000000000815260040161042d90610936565b60405180910390fd5b600082101561047a576040517f08c379a000000000000000000000000000000000000000000000000000000000815260040161047190610956565b60405180910390fd5b6104cc82600360003373ffffffffffffffffffffffffffffffffffffffff1673ffffffffffffffffffffffffffffffffffffffff168152602001908152602001600020546106d090919063ffffffff16565b600360003373ffffffffffffffffffffffffffffffffffffffff1673ffffffffffffffffffffffffffffffffffffffff1681526020019081526020016000208190555061056182600360008473ffffffffffffffffffffffffffffffffffffffff1673ffffffffffffffffffffffffffffffffffffffff1681526020019081526020016000205461071d90919063ffffffff16565b600360008373ffffffffffffffffffffffffffffffffffffffff1673ffffffffffffffffffffffffffffffffffffffff168152602001908152602001600020819055506000803373ffffffffffffffffffffffffffffffffffffffff1673ffffffffffffffffffffffffffffffffffffffff16815260200190815260200160002060405180604001604052808481526020018373ffffffffffffffffffffffffffffffffffffffff1681525090806001815401808255809150506001900390600052602060002090600202016000909190919091506000820151816000015560208201518160010160006101000a81548173ffffffffffffffffffffffffffffffffffffffff021916908373ffffffffffffffffffffffffffffffffffffffff16021790555050507f1c891226893dbcede0cc671e166bac51c2e6c5de8fb5edf761cd8f746471cebd82826040516106ba9291906109ac565b60405180910390a15050565b6000600254905090565b600082821115610709577f4e487b7100000000000000000000000000000000000000000000000000000000600052600160045260246000fd5b81836107159190610a3c565b905092915050565b600080828461072c91906109e6565b905083811015610765577f4e487b7100000000000000000000000000000000000000000000000000000000600052600160045260246000fd5b8091505092915050565b604051806040016040528060008152602001600073ffffffffffffffffffffffffffffffffffffffff1681525090565b6000813590506107ae81610b79565b92915050565b6000813590506107c381610b90565b92915050565b6000602082840312156107db57600080fd5b60006107e98482850161079f565b91505092915050565b6000806040838503121561080557600080fd5b60006108138582860161079f565b9250506020610824858286016107b4565b9150509250929050565b6000806040838503121561084157600080fd5b600061084f858286016107b4565b92505060206108608582860161079f565b9150509250929050565b61087381610a70565b82525050565b61088281610a70565b82525050565b6000610895602b836109d5565b91506108a082610adb565b604082019050919050565b60006108b8602b836109d5565b91506108c382610b2a565b604082019050919050565b6040820160008201516108e460008501826108fd565b5060208201516108f7602085018261086a565b50505050565b61090681610aa2565b82525050565b61091581610aa2565b82525050565b60006020820190506109306000830184610879565b92915050565b6000602082019050818103600083015261094f81610888565b9050919050565b6000602082019050818103600083015261096f816108ab565b9050919050565b600060408201905061098b60008301846108ce565b92915050565b60006020820190506109a6600083018461090c565b92915050565b60006040820190506109c1600083018561090c565b6109ce6020830184610879565b9392505050565b600082825260208201905092915050565b60006109f182610aa2565b91506109fc83610aa2565b9250827fffffffffffffffffffffffffffffffffffffffffffffffffffffffffffffffff03821115610a3157610a30610aac565b5b828201905092915050565b6000610a4782610aa2565b9150610a5283610aa2565b925082821015610a6557610a64610aac565b5b828203905092915050565b6000610a7b82610a82565b9050919050565b600073ffffffffffffffffffffffffffffffffffffffff82169050919050565b6000819050919050565b7f4e487b7100000000000000000000000000000000000000000000000000000000600052601160045260246000fd5b7f5472616e7366657220616d6f756e742073686f756c64206265206c657373207460008201527f68616e2062616c616e6365000000000000000000000000000000000000000000602082015250565b7f5472616e7366657220616d6f756e742073686f756c642062652067726561746560008201527f72207468616e207a65726f000000000000000000000000000000000000000000602082015250565b610b8281610a70565b8114610b8d57600080fd5b50565b610b9981610aa2565b8114610ba457600080fd5b5056fea26469706673582212204ebd40ee834ecafe9565acf956b2dc7a5b7d232d638db011eed590d5a54accfc64736f6c63430008040033",
  "immutableReferences": {},
  "source": "// SPDX-License-Identifier: MIT\n\npragma solidity ^0.8.0 ; //2. define the compile verson as ^0.8.0  (= 0.8.x)\n\n/**\n * @title Storage\n * @dev Store & retrieve value in a variable\n */\n \nlibrary SafeMath { \n    function sub(uint256 a, uint256 b) internal pure returns (uint256) {\n      assert(b <= a);\n      return a - b;\n    }\n    \n    function add(uint256 a, uint256 b) internal pure returns (uint256) {\n      uint256 c = a + b;\n      assert(c >= a);\n      return c;\n    }\n}\ncontract VolcanoToken {  //4 create contract named VolcanoCoin\n        using SafeMath for uint256;\n\n    struct Payment {\n    uint transferAmount;\n        address recepient;\n\n}\n    \n   \n \n    mapping(address => Payment[]) payments;\n    \n    //5. declare and initialize totalSupply variable to 1000 of type uint\n    // uint256 totalSupply =1000; \n    \n    //8.initialize variable owner of type address to msg.sender\n    //msg.sender is the account creating the transaction\n    address public owner; \n    uint totalSupply;\n    //12. Events are used as logging functionality which are saved in Ethereum Blockchain\n    //it accept type of totalsupply which is uint as parameter\n    event changedTotalSupply(uint256);\n    event transferE(uint256, address);\n    \n    \n    //13.mapping is basically a key-value pair which are used for fast look-ups\n    //In my sense mapping is the best fit for keep tract of user balances\n    //key is user adresses and value is their balances\n    mapping(address => uint) balances;\n    // mapping (address => Payment[] );\n    \n    constructor(){\n     totalSupply = 1000;\n\tbalances[msg.sender] = totalSupply;\n\towner=msg.sender;//11. \n    }\n    \n    //9. check condition before executing the function.\n    //_ act as a placeholder for a function which has this modifier applied\n     modifier onlyOwner() {\n        if (msg.sender == owner) {\n            _;\n        }\n    }\n    \n    //6. return the total supply of type public, view is used as it's reading the state variable(totalSupply)\n    // in return parenthesis return type of variable is defined\n    function returnTotalSupply() public view returns(uint256){\n        return totalSupply;\n    }\n    \n    \n    //7. private function so it can only be accessed within the contract\n    // This function add 100 to the total supply\n    // function changeTotalSupply() private {\n    //     totalSupply=totalSupply+1000;\n    // }\n    \n    \n    //10. change its accessblity to public with modifier applied so only owner can initiate theis function\n     function changeTotalSupply() public onlyOwner {\n        totalSupply=totalSupply+1000;\n        balances[msg.sender] += 1000;\n        emit changedTotalSupply(totalSupply);\n    }\n    \n    \n    //14.Two ways of getting balance in Solidity\n    //   making mapping public\n    \n    \n    //  2. used mapping to track balance  \n    \n     function balanceOf(address tokenOwner) public view returns (uint) {\n        return balances[tokenOwner];\n    }\n\n\n\n    \n    \n       function transfer(uint256 _transferAmount, address _recepient) public{\n         require(_transferAmount <= balances[msg.sender], \"Transfer amount should be less than balance\");\n\t require(_transferAmount >= 0, \"Transfer amount should be greater than zero\");\n        balances[msg.sender] = balances[msg.sender].sub(_transferAmount);\n        balances[_recepient] = balances[_recepient].add(_transferAmount);\n       payments[msg.sender].push(Payment(_transferAmount, _recepient));\n\n\n        emit transferE(_transferAmount,_recepient);\n    }\n    \n\n   \n\n\nfunction getPaymentInfo(address _index, uint256 _arrayIndex)  external view returns (Payment memory) \n{\n    return payments[_index][_arrayIndex];\n}\n}",
  "sourcePath": "/home/ishita/Documents/webpack/contracts/VolcanoToken.sol",
  "compiler": {
    "name": "solc",
    "version": "0.8.4+commit.c7e474f2.Emscripten.clang"
  },
  "schemaVersion": "3.4.3",
  "updatedAt": "2021-09-22T11:57:23.450Z",
  "networkType": "ethereum",
  "devdoc": {
    "kind": "dev",
    "methods": {},
    "version": 1
  },
  "userdoc": {
    "kind": "user",
    "methods": {},
    "version": 1
  }
}